{
  "transactions": [
    {
      "hash": "0x3a8c18ee2f9de85ede797c5b50038fad946a70913d860c357b0c0e4731535dc7",
      "transactionType": "CALL",
      "contractName": null,
      "contractAddress": "0xcf77a3ba9a5ca399b7c97c74d54e5b1beb874e43",
      "function": "swapExactETHForTokens(uint256,(address,address,bool,address)[],address,uint256)",
      "arguments": [
        "30680463130361195522560295",
        "[(0x4200000000000000000000000000000000000006, 0x615288abCF1B9A08EF6680F0D592B4155D9eEd8f, false, 0x420DD381b31aEf6683db6B902084cB0FFECe40Da)]",
        "0xc3561Da0fa2f00D66aF932e3ce0D7199Fcb03742",
        "1781069911"
      ],
      "transaction": {
        "from": "0x68c652f55c8813e0a9ebc43c0c3258252041f94c",
        "to": "0xcf77a3ba9a5ca399b7c97c74d54e5b1beb874e43",
        "gas": "0x715c8",
        "value": "0xb5e620f48000",
        "input": "0x903638a40000000000000000000000000000000000000000001960d73d2b2b2d047a11270000000000000000000000000000000000000000000000000000000000000080000000000000000000000000c3561da0fa2f00d66af932e3ce0d7199fcb03742000000000000000000000000000000000000000000000000000000006a28f85700000000000000000000000000000000000000000000000000000000000000010000000000000000000000004200000000000000000000000000000000000006000000000000000000000000615288abcf1b9a08ef6680f0d592b4155d9eed8f0000000000000000000000000000000000000000000000000000000000000000000000000000000000000000420dd381b31aef6683db6b902084cb0ffece40da",
        "nonce": "0x4",
        "chainId": "0x2105"
      },
      "additionalContracts": [],
      "isFixedGasLimit": false
    }
  ],
  "receipts": [
    {
      "type": "0x2",
      "status": "0x1",
      "cumulativeGasUsed": "0x6a9a20",
      "logs": [
        {
          "address": "0x4200000000000000000000000000000000000006",
          "topics": [
            "0xe1fffcc4923d04b559f4d29a8bfc6cda04eb5b0d3c460751c2402c5c5cc9109c",
            "0x000000000000000000000000cf77a3ba9a5ca399b7c97c74d54e5b1beb874e43"
          ],
          "data": "0x0000000000000000000000000000000000000000000000000000b5e620f48000",
          "blockHash": "0x0000000000000000000000000000000000000000000000000000000000000000",
          "blockNumber": "0x2cf4b6f",
          "blockTimestamp": "0x6a28f3c1",
          "transactionHash": "0x3a8c18ee2f9de85ede797c5b50038fad946a70913d860c357b0c0e4731535dc7",
          "transactionIndex": "0x20",
          "logIndex": "0x81",
          "removed": false
        },
        {
          "address": "0x4200000000000000000000000000000000000006",
          "topics": [
            "0xddf252ad1be2c89b69c2b068fc378daa952ba7f163c4a11628f55a4df523b3ef",
            "0x000000000000000000000000cf77a3ba9a5ca399b7c97c74d54e5b1beb874e43",
            "0x000000000000000000000000168a0f0f7be446f67ffe98ffbd98db4251f82740"
          ],
          "data": "0x0000000000000000000000000000000000000000000000000000b5e620f48000",
          "blockHash": "0x0000000000000000000000000000000000000000000000000000000000000000",
          "blockNumber": "0x2cf4b6f",
          "blockTimestamp": "0x6a28f3c1",
          "transactionHash": "0x3a8c18ee2f9de85ede797c5b50038fad946a70913d860c357b0c0e4731535dc7",
          "transactionIndex": "0x20",
          "logIndex": "0x82",
          "removed": false
        },
        {
          "address": "0x615288abcf1b9a08ef6680f0d592b4155d9eed8f",
          "topics": [
            "0xddf252ad1be2c89b69c2b068fc378daa952ba7f163c4a11628f55a4df523b3ef",
            "0x000000000000000000000000168a0f0f7be446f67ffe98ffbd98db4251f82740",
            "0x000000000000000000000000c3561da0fa2f00d66af932e3ce0d7199fcb03742"
          ],
          "data": "0x0000000000000000000000000000000000000000001fb90d0c75f5f845989571",
          "blockHash": "0x0000000000000000000000000000000000000000000000000000000000000000",
          "blockNumber": "0x2cf4b6f",
          "blockTimestamp": "0x6a28f3c1",
          "transactionHash": "0x3a8c18ee2f9de85ede797c5b50038fad946a70913d860c357b0c0e4731535dc7",
          "transactionIndex": "0x20",
          "logIndex": "0x83",
          "removed": false
        },
        {
          "address": "0x4200000000000000000000000000000000000006",
          "topics": [
            "0xddf252ad1be2c89b69c2b068fc378daa952ba7f163c4a11628f55a4df523b3ef",
            "0x000000000000000000000000168a0f0f7be446f67ffe98ffbd98db4251f82740",
            "0x0000000000000000000000008b86786350c721f82a64d0a5b29e8c651dafb8af"
          ],
          "data": "0x0000000000000000000000000000000000000000000000000000008bb2c97000",
          "blockHash": "0x0000000000000000000000000000000000000000000000000000000000000000",
          "blockNumber": "0x2cf4b6f",
          "blockTimestamp": "0x6a28f3c1",
          "transactionHash": "0x3a8c18ee2f9de85ede797c5b50038fad946a70913d860c357b0c0e4731535dc7",
          "transactionIndex": "0x20",
          "logIndex": "0x84",
          "removed": false
        },
        {
          "address": "0x168a0f0f7be446f67ffe98ffbd98db4251f82740",
          "topics": [
            "0x112c256902bf554b6ed882d2936687aaeb4225e8cd5b51303c90ca6cf43a8602",
            "0x000000000000000000000000cf77a3ba9a5ca399b7c97c74d54e5b1beb874e43"
          ],
          "data": "0x0000000000000000000000000000000000000000000000000000008bb2c970000000000000000000000000000000000000000000000000000000000000000000",
          "blockHash": "0x0000000000000000000000000000000000000000000000000000000000000000",
          "blockNumber": "0x2cf4b6f",
          "blockTimestamp": "0x6a28f3c1",
          "transactionHash": "0x3a8c18ee2f9de85ede797c5b50038fad946a70913d860c357b0c0e4731535dc7",
          "transactionIndex": "0x20",
          "logIndex": "0x85",
          "removed": false
        },
        {
          "address": "0x168a0f0f7be446f67ffe98ffbd98db4251f82740",
          "topics": [
            "0xcf2aa50876cdfbb541206f89af0ee78d44a2abf8d328e37fa4917f982149848a"
          ],
          "data": "0x000000000000000000000000000000000000000000000000001278d3a60b90000000000000000000000000000000000000000000031b752f935a8a44a2676a8f",
          "blockHash": "0x0000000000000000000000000000000000000000000000000000000000000000",
          "blockNumber": "0x2cf4b6f",
          "blockTimestamp": "0x6a28f3c1",
          "transactionHash": "0x3a8c18ee2f9de85ede797c5b50038fad946a70913d860c357b0c0e4731535dc7",
          "transactionIndex": "0x20",
          "logIndex": "0x86",
          "removed": false
        },
        {
          "address": "0x168a0f0f7be446f67ffe98ffbd98db4251f82740",
          "topics": [
            "0xb3e2773606abfd36b5bd91394b3a54d1398336c65005baf7bf7a05efeffaf75b",
            "0x000000000000000000000000cf77a3ba9a5ca399b7c97c74d54e5b1beb874e43",
            "0x000000000000000000000000c3561da0fa2f00d66af932e3ce0d7199fcb03742"
          ],
          "data": "0x0000000000000000000000000000000000000000000000000000b5e620f48000000000000000000000000000000000000000000000000000000000000000000000000000000000000000000000000000000000000000000000000000000000000000000000000000000000000000000000000000001fb90d0c75f5f845989571",
          "blockHash": "0x0000000000000000000000000000000000000000000000000000000000000000",
          "blockNumber": "0x2cf4b6f",
          "blockTimestamp": "0x6a28f3c1",
          "transactionHash": "0x3a8c18ee2f9de85ede797c5b50038fad946a70913d860c357b0c0e4731535dc7",
          "transactionIndex": "0x20",
          "logIndex": "0x87",
          "removed": false
        }
      ],
      "logsBloom": "0x00000000000008000000000000000000000000000000000000040000000000000400000000000000000000100000000000000000000000000000000000000000000000000000000000000008000000000082000000000000000000008000000000000000000400000000000000008000000000001000000000000010000000000000000000002000000002000004000000001001002010001000000300000000020000000000000000000000000000000000000000000000000000000000000000000002004000000400000400200000000000000000028000000000010000000000000100000000000000000000210000000000000000400000000000000000",
      "transactionHash": "0x3a8c18ee2f9de85ede797c5b50038fad946a70913d860c357b0c0e4731535dc7",
      "transactionIndex": "0x20",
      "blockHash": "0x0000000000000000000000000000000000000000000000000000000000000000",
      "blockNumber": "0x2cf4b6f",
      "gasUsed": "0x52126",
      "effectiveGasPrice": "0x52d941",
      "blobGasUsed": "0x61b4",
      "from": "0x68c652f55c8813e0a9ebc43c0c3258252041f94c",
      "to": "0xcf77a3ba9a5ca399b7c97c74d54e5b1beb874e43",
      "contractAddress": null,
      "l1GasPrice": "0x905f6ab",
      "l1GasUsed": "0xa90",
      "l1Fee": "0x66b5a97f",
      "l1BaseFeeScalar": "0x8dd",
      "l1BlobBaseFee": "0x882bd6",
      "l1BlobBaseFeeScalar": "0x101c12",
      "daFootprintGasScalar": "0x94"
    }
  ],
  "libraries": [],
  "pending": [],
  "returns": {},
  "timestamp": 1781068735379,
  "chain": 8453,
  "commit": "452ee30"
}