{
  "transactions": [
    {
      "hash": "0x51c4aa3f24fc747cf14f799dbf56c81bd21dd830c7440aa6b7758b0ba5131df9",
      "transactionType": "CALL",
      "contractName": null,
      "contractAddress": "0x615288abcf1b9a08ef6680f0d592b4155d9eed8f",
      "function": "approve(address,uint256)",
      "arguments": [
        "0xcF77a3Ba9A5CA399B7c97c74d54e5b1Beb874E43",
        "1000000000000000000000000000"
      ],
      "transaction": {
        "from": "0x68c652f55c8813e0a9ebc43c0c3258252041f94c",
        "to": "0x615288abcf1b9a08ef6680f0d592b4155d9eed8f",
        "gas": "0xfd67",
        "value": "0x0",
        "input": "0x095ea7b3000000000000000000000000cf77a3ba9a5ca399b7c97c74d54e5b1beb874e430000000000000000000000000000000000000000033b2e3c9fd0803ce8000000",
        "nonce": "0x1",
        "chainId": "0x2105"
      },
      "additionalContracts": [],
      "isFixedGasLimit": false
    },
    {
      "hash": "0x792c001ca378de49e57e67b0f8bc51c4704d7d0fee9e665a94baa906b47c578e",
      "transactionType": "CALL",
      "contractName": null,
      "contractAddress": "0xcf77a3ba9a5ca399b7c97c74d54e5b1beb874e43",
      "function": "addLiquidityETH(address,bool,uint256,uint256,uint256,address,uint256)",
      "arguments": [
        "0x615288abCF1B9A08EF6680F0D592B4155D9eEd8f",
        "false",
        "1000000000000000000000000000",
        "0",
        "0",
        "0x68C652f55c8813E0a9eBC43C0C3258252041F94C",
        "1781051651"
      ],
      "transaction": {
        "from": "0x68c652f55c8813e0a9ebc43c0c3258252041f94c",
        "to": "0xcf77a3ba9a5ca399b7c97c74d54e5b1beb874e43",
        "gas": "0x14b6ae",
        "value": "0x11c37937e08000",
        "input": "0xb7e0d4c0000000000000000000000000615288abcf1b9a08ef6680f0d592b4155d9eed8f00000000000000000000000000000000000000000000000000000000000000000000000000000000000000000000000000000000033b2e3c9fd0803ce80000000000000000000000000000000000000000000000000000000000000000000000000000000000000000000000000000000000000000000000000000000000000000000000000000000000000068c652f55c8813e0a9ebc43c0c3258252041f94c000000000000000000000000000000000000000000000000000000006a28b103",
        "nonce": "0x2",
        "chainId": "0x2105"
      },
      "additionalContracts": [
        {
          "transactionType": "CREATE2",
          "contractName": null,
          "address": "0x168a0f0f7be446f67ffe98ffbd98db4251f82740",
          "initCode": "0x3d602d80600a3d3981f3363d3d373d3d3d363d73a4e46b4f701c62e14df11b48dce76a7d793cd6d75af43d82803e903d91602b57fd5bf3"
        },
        {
          "transactionType": "CREATE",
          "contractName": null,
          "address": "0x8b86786350c721f82a64d0a5b29e8c651dafb8af",
          "initCode": "0x60e060405234801561001057600080fd5b5060405161058138038061058183398101604081905261002f91610066565b336080526001600160a01b0391821660a0521660c052610099565b80516001600160a01b038116811461006157600080fd5b919050565b6000806040838503121561007957600080fd5b6100828361004a565b91506100906020840161004a565b90509250929050565b60805160a05160c0516104bc6100c5600039600060db0152600060a101526000605001526104bc6000f3fe608060405234801561001057600080fd5b506004361061002b5760003560e01c8063533cf5ce14610030575b600080fd5b61004361003e3660046103a9565b610045565b005b336001600160a01b037f0000000000000000000000000000000000000000000000000000000000000000161461008e57604051636f61f64160e01b815260040160405180910390fd5b81156100c8576100c86001600160a01b037f0000000000000000000000000000000000000000000000000000000000000000168484610107565b8015610102576101026001600160a01b037f0000000000000000000000000000000000000000000000000000000000000000168483610107565b505050565b604080516001600160a01b03848116602483015260448083018590528351808403909101815260649092018352602080830180516001600160e01b031663a9059cbb60e01b17905283518085019094528084527f5361666545524332303a206c6f772d6c6576656c2063616c6c206661696c65649084015261010292869291600091610197918516908490610219565b80519091501561010257808060200190518101906101b591906103ea565b6101025760405162461bcd60e51b815260206004820152602a60248201527f5361666545524332303a204552433230206f7065726174696f6e20646964206e6044820152691bdd081cdd58d8d9595960b21b60648201526084015b60405180910390fd5b60606102288484600085610230565b949350505050565b6060824710156102915760405162461bcd60e51b815260206004820152602660248201527f416464726573733a20696e73756666696369656e742062616c616e636520666f6044820152651c8818d85b1b60d21b6064820152608401610210565b600080866001600160a01b031685876040516102ad9190610437565b60006040518083038185875af1925050503d80600081146102ea576040519150601f19603f3d011682016040523d82523d6000602084013e6102ef565b606091505b50915091506103008783838761030b565b979650505050505050565b6060831561037a578251600003610373576001600160a01b0385163b6103735760405162461bcd60e51b815260206004820152601d60248201527f416464726573733a2063616c6c20746f206e6f6e2d636f6e74726163740000006044820152606401610210565b5081610228565b610228838381511561038f5781518083602001fd5b8060405162461bcd60e51b81526004016102109190610453565b6000806000606084860312156103be57600080fd5b83356001600160a01b03811681146103d557600080fd5b95602085013595506040909401359392505050565b6000602082840312156103fc57600080fd5b8151801515811461040c57600080fd5b9392505050565b60005b8381101561042e578181015183820152602001610416565b50506000910152565b60008251610449818460208701610413565b9190910192915050565b6020815260008251806020840152610472816040850160208701610413565b601f01601f1916919091016040019291505056fea264697066735822122037bdba78ad80472041e64941d7abb24fca959772f9fc80806e469bbd68d5595d64736f6c634300081300330000000000000000000000004200000000000000000000000000000000000006000000000000000000000000615288abcf1b9a08ef6680f0d592b4155d9eed8f"
        }
      ],
      "isFixedGasLimit": false
    }
  ],
  "receipts": [
    {
      "type": "0x2",
      "status": "0x1",
      "cumulativeGasUsed": "0x1c1fe70",
      "logs": [
        {
          "address": "0x615288abcf1b9a08ef6680f0d592b4155d9eed8f",
          "topics": [
            "0x8c5be1e5ebec7d5bd14f71427d1e84f3dd0314c0f7b2291e5b200ac8c7c3b925",
            "0x00000000000000000000000068c652f55c8813e0a9ebc43c0c3258252041f94c",
            "0x000000000000000000000000cf77a3ba9a5ca399b7c97c74d54e5b1beb874e43"
          ],
          "data": "0x0000000000000000000000000000000000000000033b2e3c9fd0803ce8000000",
          "blockHash": "0x0000000000000000000000000000000000000000000000000000000000000000",
          "blockNumber": "0x2cf27c1",
          "blockTimestamp": "0x6a28ac65",
          "transactionHash": "0x51c4aa3f24fc747cf14f799dbf56c81bd21dd830c7440aa6b7758b0ba5131df9",
          "transactionIndex": "0xb4",
          "logIndex": "0x30e",
          "removed": false
        }
      ],
      "logsBloom": "0x00000000000000000000000000000000000004000000000000000000000000000000000000000000000000000000000000000000000000000000000000200000008000000000000000000000000000000000000000000000000000000000000000000000000000000000000000000000000000001000000000000000000000000000000000000000000000000004000000000001000000001000000200000000020000000000000000000000000000000000000000000000000000000000000000000000004000000000000000000000000000000000000000000000000000000010000000000000000000000000000000000000000000002000000000000000",
      "transactionHash": "0x51c4aa3f24fc747cf14f799dbf56c81bd21dd830c7440aa6b7758b0ba5131df9",
      "transactionIndex": "0xb4",
      "blockHash": "0x0000000000000000000000000000000000000000000000000000000000000000",
      "blockNumber": "0x2cf27c1",
      "gasUsed": "0xb776",
      "effectiveGasPrice": "0x5b8d80",
      "blobGasUsed": "0x39d0",
      "from": "0x68c652f55c8813e0a9ebc43c0c3258252041f94c",
      "to": "0x615288abcf1b9a08ef6680f0d592b4155d9eed8f",
      "contractAddress": null,
      "l1GasPrice": "0x8359c3d",
      "l1GasUsed": "0x640",
      "l1Fee": "0x689905b5",
      "l1BaseFeeScalar": "0x8dd",
      "l1BlobBaseFee": "0x73f346",
      "l1BlobBaseFeeScalar": "0x101c12",
      "daFootprintGasScalar": "0x94"
    },
    {
      "type": "0x2",
      "status": "0x1",
      "cumulativeGasUsed": "0x1fd15a7",
      "logs": [
        {
          "address": "0x420dd381b31aef6683db6b902084cb0ffece40da",
          "topics": [
            "0x2128d88d14c80cb081c1252a5acff7a264671bf199ce226b53788fb26065005e",
            "0x0000000000000000000000004200000000000000000000000000000000000006",
            "0x000000000000000000000000615288abcf1b9a08ef6680f0d592b4155d9eed8f",
            "0x0000000000000000000000000000000000000000000000000000000000000000"
          ],
          "data": "0x000000000000000000000000168a0f0f7be446f67ffe98ffbd98db4251f827400000000000000000000000000000000000000000000000000000000000006cfb",
          "blockHash": "0x0000000000000000000000000000000000000000000000000000000000000000",
          "blockNumber": "0x2cf27c1",
          "blockTimestamp": "0x6a28ac65",
          "transactionHash": "0x792c001ca378de49e57e67b0f8bc51c4704d7d0fee9e665a94baa906b47c578e",
          "transactionIndex": "0xb7",
          "logIndex": "0x32e",
          "removed": false
        },
        {
          "address": "0x615288abcf1b9a08ef6680f0d592b4155d9eed8f",
          "topics": [
            "0xddf252ad1be2c89b69c2b068fc378daa952ba7f163c4a11628f55a4df523b3ef",
            "0x00000000000000000000000068c652f55c8813e0a9ebc43c0c3258252041f94c",
            "0x000000000000000000000000168a0f0f7be446f67ffe98ffbd98db4251f82740"
          ],
          "data": "0x0000000000000000000000000000000000000000033b2e3c9fd0803ce8000000",
          "blockHash": "0x0000000000000000000000000000000000000000000000000000000000000000",
          "blockNumber": "0x2cf27c1",
          "blockTimestamp": "0x6a28ac65",
          "transactionHash": "0x792c001ca378de49e57e67b0f8bc51c4704d7d0fee9e665a94baa906b47c578e",
          "transactionIndex": "0xb7",
          "logIndex": "0x32f",
          "removed": false
        },
        {
          "address": "0x4200000000000000000000000000000000000006",
          "topics": [
            "0xe1fffcc4923d04b559f4d29a8bfc6cda04eb5b0d3c460751c2402c5c5cc9109c",
            "0x000000000000000000000000cf77a3ba9a5ca399b7c97c74d54e5b1beb874e43"
          ],
          "data": "0x0000000000000000000000000000000000000000000000000011c37937e08000",
          "blockHash": "0x0000000000000000000000000000000000000000000000000000000000000000",
          "blockNumber": "0x2cf27c1",
          "blockTimestamp": "0x6a28ac65",
          "transactionHash": "0x792c001ca378de49e57e67b0f8bc51c4704d7d0fee9e665a94baa906b47c578e",
          "transactionIndex": "0xb7",
          "logIndex": "0x330",
          "removed": false
        },
        {
          "address": "0x4200000000000000000000000000000000000006",
          "topics": [
            "0xddf252ad1be2c89b69c2b068fc378daa952ba7f163c4a11628f55a4df523b3ef",
            "0x000000000000000000000000cf77a3ba9a5ca399b7c97c74d54e5b1beb874e43",
            "0x000000000000000000000000168a0f0f7be446f67ffe98ffbd98db4251f82740"
          ],
          "data": "0x0000000000000000000000000000000000000000000000000011c37937e08000",
          "blockHash": "0x0000000000000000000000000000000000000000000000000000000000000000",
          "blockNumber": "0x2cf27c1",
          "blockTimestamp": "0x6a28ac65",
          "transactionHash": "0x792c001ca378de49e57e67b0f8bc51c4704d7d0fee9e665a94baa906b47c578e",
          "transactionIndex": "0xb7",
          "logIndex": "0x331",
          "removed": false
        },
        {
          "address": "0x168a0f0f7be446f67ffe98ffbd98db4251f82740",
          "topics": [
            "0xddf252ad1be2c89b69c2b068fc378daa952ba7f163c4a11628f55a4df523b3ef",
            "0x0000000000000000000000000000000000000000000000000000000000000000",
            "0x0000000000000000000000000000000000000000000000000000000000000001"
          ],
          "data": "0x00000000000000000000000000000000000000000000000000000000000003e8",
          "blockHash": "0x0000000000000000000000000000000000000000000000000000000000000000",
          "blockNumber": "0x2cf27c1",
          "blockTimestamp": "0x6a28ac65",
          "transactionHash": "0x792c001ca378de49e57e67b0f8bc51c4704d7d0fee9e665a94baa906b47c578e",
          "transactionIndex": "0xb7",
          "logIndex": "0x332",
          "removed": false
        },
        {
          "address": "0x168a0f0f7be446f67ffe98ffbd98db4251f82740",
          "topics": [
            "0xddf252ad1be2c89b69c2b068fc378daa952ba7f163c4a11628f55a4df523b3ef",
            "0x0000000000000000000000000000000000000000000000000000000000000000",
            "0x00000000000000000000000068c652f55c8813e0a9ebc43c0c3258252041f94c"
          ],
          "data": "0x00000000000000000000000000000000000000000000007937ad4a57151f19b1",
          "blockHash": "0x0000000000000000000000000000000000000000000000000000000000000000",
          "blockNumber": "0x2cf27c1",
          "blockTimestamp": "0x6a28ac65",
          "transactionHash": "0x792c001ca378de49e57e67b0f8bc51c4704d7d0fee9e665a94baa906b47c578e",
          "transactionIndex": "0xb7",
          "logIndex": "0x333",
          "removed": false
        },
        {
          "address": "0x168a0f0f7be446f67ffe98ffbd98db4251f82740",
          "topics": [
            "0xcf2aa50876cdfbb541206f89af0ee78d44a2abf8d328e37fa4917f982149848a"
          ],
          "data": "0x0000000000000000000000000000000000000000000000000011c37937e080000000000000000000000000000000000000000000033b2e3c9fd0803ce8000000",
          "blockHash": "0x0000000000000000000000000000000000000000000000000000000000000000",
          "blockNumber": "0x2cf27c1",
          "blockTimestamp": "0x6a28ac65",
          "transactionHash": "0x792c001ca378de49e57e67b0f8bc51c4704d7d0fee9e665a94baa906b47c578e",
          "transactionIndex": "0xb7",
          "logIndex": "0x334",
          "removed": false
        },
        {
          "address": "0x168a0f0f7be446f67ffe98ffbd98db4251f82740",
          "topics": [
            "0x4c209b5fc8ad50758f13e2e1088ba56a560dff690a1c6fef26394f4c03821c4f",
            "0x000000000000000000000000cf77a3ba9a5ca399b7c97c74d54e5b1beb874e43"
          ],
          "data": "0x0000000000000000000000000000000000000000000000000011c37937e080000000000000000000000000000000000000000000033b2e3c9fd0803ce8000000",
          "blockHash": "0x0000000000000000000000000000000000000000000000000000000000000000",
          "blockNumber": "0x2cf27c1",
          "blockTimestamp": "0x6a28ac65",
          "transactionHash": "0x792c001ca378de49e57e67b0f8bc51c4704d7d0fee9e665a94baa906b47c578e",
          "transactionIndex": "0xb7",
          "logIndex": "0x335",
          "removed": false
        }
      ],
      "logsBloom": "0x00000000000800000020000000000000000004000800000000040000000001000000000000002000000000100000000000000000800000000020000000040000008000000000000000000008000000000002000000040000000000008000000000000000020400000000000000008800000010001008000000000010000000000000000000002000000000000004000000001001002014001000000310000000000000000000000000000000000000000400000000000000000000000000000000000003004004000000000400220000000000000000000000000000000060000000000000000000000000000000000000000000000000402000000000000000",
      "transactionHash": "0x792c001ca378de49e57e67b0f8bc51c4704d7d0fee9e665a94baa906b47c578e",
      "transactionIndex": "0xb7",
      "blockHash": "0x0000000000000000000000000000000000000000000000000000000000000000",
      "blockNumber": "0x2cf27c1",
      "gasUsed": "0xeff0c",
      "effectiveGasPrice": "0x5b8d80",
      "blobGasUsed": "0x496c",
      "from": "0x68c652f55c8813e0a9ebc43c0c3258252041f94c",
      "to": "0xcf77a3ba9a5ca399b7c97c74d54e5b1beb874e43",
      "contractAddress": null,
      "l1GasPrice": "0x8359c3d",
      "l1GasUsed": "0x7f3",
      "l1Fee": "0x689905b5",
      "l1BaseFeeScalar": "0x8dd",
      "l1BlobBaseFee": "0x73f346",
      "l1BlobBaseFeeScalar": "0x101c12",
      "daFootprintGasScalar": "0x94"
    }
  ],
  "libraries": [],
  "pending": [],
  "returns": {},
  "timestamp": 1781050469102,
  "chain": 8453,
  "commit": "452ee30"
}