{
  "transactions": [
    {
      "hash": "0x7c635432e1c467ad60a9d55a6ab5d0b01fa764be01f811e62d3381bbb1710e6f",
      "transactionType": "CALL",
      "contractName": null,
      "contractAddress": "0x168a0f0f7be446f67ffe98ffbd98db4251f82740",
      "function": "transfer(address,uint256)",
      "arguments": [
        "0x000000000000000000000000000000000000dEaD",
        "2236067977499789695409"
      ],
      "transaction": {
        "from": "0x68c652f55c8813e0a9ebc43c0c3258252041f94c",
        "to": "0x168a0f0f7be446f67ffe98ffbd98db4251f82740",
        "gas": "0x1569f",
        "value": "0x0",
        "input": "0xa9059cbb000000000000000000000000000000000000000000000000000000000000dead00000000000000000000000000000000000000000000007937ad4a57151f19b1",
        "nonce": "0x3",
        "chainId": "0x2105"
      },
      "additionalContracts": [],
      "isFixedGasLimit": false
    }
  ],
  "receipts": [
    {
      "type": "0x2",
      "status": "0x1",
      "cumulativeGasUsed": "0x1116057",
      "logs": [
        {
          "address": "0x168a0f0f7be446f67ffe98ffbd98db4251f82740",
          "topics": [
            "0xddf252ad1be2c89b69c2b068fc378daa952ba7f163c4a11628f55a4df523b3ef",
            "0x00000000000000000000000068c652f55c8813e0a9ebc43c0c3258252041f94c",
            "0x000000000000000000000000000000000000000000000000000000000000dead"
          ],
          "data": "0x00000000000000000000000000000000000000000000007937ad4a57151f19b1",
          "blockHash": "0x0000000000000000000000000000000000000000000000000000000000000000",
          "blockNumber": "0x2cf282e",
          "blockTimestamp": "0x6a28ad3f",
          "transactionHash": "0x7c635432e1c467ad60a9d55a6ab5d0b01fa764be01f811e62d3381bbb1710e6f",
          "transactionIndex": "0x5c",
          "logIndex": "0x237",
          "removed": false
        }
      ],
      "logsBloom": "0x00000000000010000000000000000000000004000000000000000000000000000000000000000000000000000000000000000000000000000000000000000000008000000000000000000008000000000000000000000000000000000000000000000000000000000000000000008000000000000000000000000010000000000000000000002000000004000000000000000000000010000000000000000000000000000000000000000000000000000000000000000000000000000000000000000402000000000000000000000000000000000000000000000000000000000000000000000000000000000000000000000000000000002000000000000000",
      "transactionHash": "0x7c635432e1c467ad60a9d55a6ab5d0b01fa764be01f811e62d3381bbb1710e6f",
      "transactionIndex": "0x5c",
      "blockHash": "0x0000000000000000000000000000000000000000000000000000000000000000",
      "blockNumber": "0x2cf282e",
      "gasUsed": "0xf80e",
      "effectiveGasPrice": "0x5b8d80",
      "blobGasUsed": "0x39d0",
      "from": "0x68c652f55c8813e0a9ebc43c0c3258252041f94c",
      "to": "0x168a0f0f7be446f67ffe98ffbd98db4251f82740",
      "contractAddress": null,
      "l1GasPrice": "0x805edbd",
      "l1GasUsed": "0x640",
      "l1Fee": "0x4bb5ea44",
      "l1BaseFeeScalar": "0x8dd",
      "l1BlobBaseFee": "0x70f46a",
      "l1BlobBaseFeeScalar": "0x101c12",
      "daFootprintGasScalar": "0x94"
    }
  ],
  "libraries": [],
  "pending": [],
  "returns": {},
  "timestamp": 1781050686385,
  "chain": 8453,
  "commit": "452ee30"
}